{
  "_format": "hh-sol-artifact-1",
  "contractName": "WorkVerifier",
  "sourceName": "contracts/WorkVerifier.sol",
  "abi": [
    {
      "inputs": [
        {
          "internalType": "bytes32",
          "name": "",
          "type": "bytes32"
        }
      ],
      "name": "usedWork",
      "outputs": [
        {
          "internalType": "bool",
          "name": "",
          "type": "bool"
        }
      ],
      "stateMutability": "view",
      "type": "function"
    },
    {
      "inputs": [
        {
          "internalType": "bytes32",
          "name": "workHash",
          "type": "bytes32"
        },
        {
          "internalType": "uint256",
          "name": "target",
          "type": "uint256"
        }
      ],
      "name": "verifyWork",
      "outputs": [
        {
          "internalType": "bool",
          "name": "",
          "type": "bool"
        }
      ],
      "stateMutability": "nonpayable",
      "type": "function"
    }
  ],
  "bytecode": "0x608060405234801561001057600080fd5b5061031d806100206000396000f3fe608060405234801561001057600080fd5b50600436106100365760003560e01c80637064937d1461003b578063e26caf831461006b575b600080fd5b610055600480360381019061005091906101c7565b61009b565b6040516100629190610222565b60405180910390f35b6100856004803603810190610080919061023d565b610136565b6040516100929190610222565b60405180910390f35b600080600084815260200190815260200160002060009054906101000a900460ff16156100fd576040517f08c379a00000000000000000000000000000000000000000000000000000000081526004016100f4906102c7565b60405180910390fd5b600160008085815260200190815260200160002060006101000a81548160ff021916908315150217905550818360001c10905092915050565b60006020528060005260406000206000915054906101000a900460ff1681565b600080fd5b6000819050919050565b61016e8161015b565b811461017957600080fd5b50565b60008135905061018b81610165565b92915050565b6000819050919050565b6101a481610191565b81146101af57600080fd5b50565b6000813590506101c18161019b565b92915050565b600080604083850312156101de576101dd610156565b5b60006101ec8582860161017c565b92505060206101fd858286016101b2565b9150509250929050565b60008115159050919050565b61021c81610207565b82525050565b60006020820190506102376000830184610213565b92915050565b60006020828403121561025357610252610156565b5b60006102618482850161017c565b91505092915050565b600082825260208201905092915050565b7f4475706c696361746520776f726b000000000000000000000000000000000000600082015250565b60006102b1600e8361026a565b91506102bc8261027b565b602082019050919050565b600060208201905081810360008301526102e0816102a4565b905091905056fea2646970667358221220b97011017547ec715f5219d406672561e1fecc2f73c9c9c82443e7a5a23c5af764736f6c63430008180033",
  "linkReferences": {},
  "deployedLinkReferences": {}
}