{
  "_format": "hh-sol-artifact-1",
  "contractName": "RewardsVault",
  "sourceName": "contracts/RewardsVault.sol",
  "abi": [
    {
      "inputs": [
        {
          "internalType": "address",
          "name": "_rewardToken",
          "type": "address"
        }
      ],
      "stateMutability": "nonpayable",
      "type": "constructor"
    },
    {
      "inputs": [
        {
          "internalType": "address",
          "name": "miner",
          "type": "address"
        },
        {
          "internalType": "uint256",
          "name": "amount",
          "type": "uint256"
        }
      ],
      "name": "distribute",
      "outputs": [],
      "stateMutability": "nonpayable",
      "type": "function"
    },
    {
      "inputs": [],
      "name": "owner",
      "outputs": [
        {
          "internalType": "address",
          "name": "",
          "type": "address"
        }
      ],
      "stateMutability": "view",
      "type": "function"
    },
    {
      "inputs": [],
      "name": "rewardToken",
      "outputs": [
        {
          "internalType": "contract IERC20",
          "name": "",
          "type": "address"
        }
      ],
      "stateMutability": "view",
      "type": "function"
    }
  ],
  "bytecode": "0x608060405234801561001057600080fd5b506040516106ea3803806106ea8339818101604052810190610032919061011c565b336000806101000a81548173ffffffffffffffffffffffffffffffffffffffff021916908373ffffffffffffffffffffffffffffffffffffffff16021790555080600160006101000a81548173ffffffffffffffffffffffffffffffffffffffff021916908373ffffffffffffffffffffffffffffffffffffffff16021790555050610149565b600080fd5b600073ffffffffffffffffffffffffffffffffffffffff82169050919050565b60006100e9826100be565b9050919050565b6100f9816100de565b811461010457600080fd5b50565b600081519050610116816100f0565b92915050565b600060208284031215610132576101316100b9565b5b600061014084828501610107565b91505092915050565b610592806101586000396000f3fe608060405234801561001057600080fd5b50600436106100415760003560e01c80638da5cb5b14610046578063f7c618c114610064578063fb93210814610082575b600080fd5b61004e61009e565b60405161005b919061029a565b60405180910390f35b61006c6100c2565b6040516100799190610314565b60405180910390f35b61009c60048036038101906100979190610396565b6100e8565b005b60008054906101000a900473ffffffffffffffffffffffffffffffffffffffff1681565b600160009054906101000a900473ffffffffffffffffffffffffffffffffffffffff1681565b60008054906101000a900473ffffffffffffffffffffffffffffffffffffffff1673ffffffffffffffffffffffffffffffffffffffff163373ffffffffffffffffffffffffffffffffffffffff1614610176576040517f08c379a000000000000000000000000000000000000000000000000000000000815260040161016d90610433565b60405180910390fd5b600160009054906101000a900473ffffffffffffffffffffffffffffffffffffffff1673ffffffffffffffffffffffffffffffffffffffff1663a9059cbb83836040518363ffffffff1660e01b81526004016101d3929190610462565b6020604051808303816000875af11580156101f2573d6000803e3d6000fd5b505050506040513d601f19601f8201168201806040525081019061021691906104c3565b610255576040517f08c379a000000000000000000000000000000000000000000000000000000000815260040161024c9061053c565b60405180910390fd5b5050565b600073ffffffffffffffffffffffffffffffffffffffff82169050919050565b600061028482610259565b9050919050565b61029481610279565b82525050565b60006020820190506102af600083018461028b565b92915050565b6000819050919050565b60006102da6102d56102d084610259565b6102b5565b610259565b9050919050565b60006102ec826102bf565b9050919050565b60006102fe826102e1565b9050919050565b61030e816102f3565b82525050565b60006020820190506103296000830184610305565b92915050565b600080fd5b61033d81610279565b811461034857600080fd5b50565b60008135905061035a81610334565b92915050565b6000819050919050565b61037381610360565b811461037e57600080fd5b50565b6000813590506103908161036a565b92915050565b600080604083850312156103ad576103ac61032f565b5b60006103bb8582860161034b565b92505060206103cc85828601610381565b9150509250929050565b600082825260208201905092915050565b7f4e6f74206f776e65720000000000000000000000000000000000000000000000600082015250565b600061041d6009836103d6565b9150610428826103e7565b602082019050919050565b6000602082019050818103600083015261044c81610410565b9050919050565b61045c81610360565b82525050565b6000604082019050610477600083018561028b565b6104846020830184610453565b9392505050565b60008115159050919050565b6104a08161048b565b81146104ab57600080fd5b50565b6000815190506104bd81610497565b92915050565b6000602082840312156104d9576104d861032f565b5b60006104e7848285016104ae565b91505092915050565b7f5472616e73666572206661696c65640000000000000000000000000000000000600082015250565b6000610526600f836103d6565b9150610531826104f0565b602082019050919050565b6000602082019050818103600083015261055581610519565b905091905056fea264697066735822122042fa073c7a19b07778a06f79823323ad70cfcaa23d2ca9010e317f598943535364736f6c63430008180033",
  "linkReferences": {},
  "deployedLinkReferences": {}
}