{
  "_format": "hh-sol-artifact-1",
  "contractName": "MiningSession",
  "sourceName": "contracts/MiningSession.sol",
  "abi": [
    {
      "inputs": [
        {
          "internalType": "address",
          "name": "_vault",
          "type": "address"
        },
        {
          "internalType": "address",
          "name": "_devWallet",
          "type": "address"
        },
        {
          "internalType": "uint256",
          "name": "_initialDifficulty",
          "type": "uint256"
        },
        {
          "internalType": "uint256",
          "name": "_rewardPerShare",
          "type": "uint256"
        }
      ],
      "stateMutability": "nonpayable",
      "type": "constructor"
    },
    {
      "anonymous": false,
      "inputs": [
        {
          "indexed": false,
          "internalType": "uint256",
          "name": "oldFee",
          "type": "uint256"
        },
        {
          "indexed": false,
          "internalType": "uint256",
          "name": "newFee",
          "type": "uint256"
        }
      ],
      "name": "DevFeeUpdated",
      "type": "event"
    },
    {
      "anonymous": false,
      "inputs": [
        {
          "indexed": true,
          "internalType": "address",
          "name": "oldWallet",
          "type": "address"
        },
        {
          "indexed": true,
          "internalType": "address",
          "name": "newWallet",
          "type": "address"
        }
      ],
      "name": "DevWalletUpdated",
      "type": "event"
    },
    {
      "anonymous": false,
      "inputs": [
        {
          "indexed": false,
          "internalType": "uint256",
          "name": "difficulty",
          "type": "uint256"
        },
        {
          "indexed": false,
          "internalType": "uint256",
          "name": "newTarget",
          "type": "uint256"
        }
      ],
      "name": "DifficultyUpdated",
      "type": "event"
    },
    {
      "anonymous": false,
      "inputs": [
        {
          "indexed": false,
          "internalType": "uint256",
          "name": "epoch",
          "type": "uint256"
        },
        {
          "indexed": false,
          "internalType": "uint256",
          "name": "target",
          "type": "uint256"
        },
        {
          "indexed": false,
          "internalType": "uint256",
          "name": "rewardPerShare",
          "type": "uint256"
        }
      ],
      "name": "EpochStarted",
      "type": "event"
    },
    {
      "anonymous": false,
      "inputs": [
        {
          "indexed": false,
          "internalType": "uint256",
          "name": "rewardPerShare",
          "type": "uint256"
        }
      ],
      "name": "ParamsUpdated",
      "type": "event"
    },
    {
      "anonymous": false,
      "inputs": [
        {
          "indexed": true,
          "internalType": "address",
          "name": "miner",
          "type": "address"
        },
        {
          "indexed": false,
          "internalType": "uint256",
          "name": "epoch",
          "type": "uint256"
        },
        {
          "indexed": false,
          "internalType": "uint256",
          "name": "minerAmount",
          "type": "uint256"
        },
        {
          "indexed": false,
          "internalType": "uint256",
          "name": "devAmount",
          "type": "uint256"
        }
      ],
      "name": "RewardsClaimed",
      "type": "event"
    },
    {
      "anonymous": false,
      "inputs": [
        {
          "indexed": true,
          "internalType": "address",
          "name": "miner",
          "type": "address"
        },
        {
          "indexed": false,
          "internalType": "uint256",
          "name": "epoch",
          "type": "uint256"
        },
        {
          "indexed": false,
          "internalType": "uint256",
          "name": "nonce",
          "type": "uint256"
        },
        {
          "indexed": false,
          "internalType": "bytes32",
          "name": "hash",
          "type": "bytes32"
        }
      ],
      "name": "ShareSubmitted",
      "type": "event"
    },
    {
      "inputs": [
        {
          "internalType": "uint256",
          "name": "epoch",
          "type": "uint256"
        }
      ],
      "name": "claimRewards",
      "outputs": [],
      "stateMutability": "nonpayable",
      "type": "function"
    },
    {
      "inputs": [],
      "name": "currentEpoch",
      "outputs": [
        {
          "internalType": "uint256",
          "name": "",
          "type": "uint256"
        }
      ],
      "stateMutability": "view",
      "type": "function"
    },
    {
      "inputs": [],
      "name": "devFeeBps",
      "outputs": [
        {
          "internalType": "uint256",
          "name": "",
          "type": "uint256"
        }
      ],
      "stateMutability": "view",
      "type": "function"
    },
    {
      "inputs": [],
      "name": "devWallet",
      "outputs": [
        {
          "internalType": "address",
          "name": "",
          "type": "address"
        }
      ],
      "stateMutability": "view",
      "type": "function"
    },
    {
      "inputs": [],
      "name": "difficulty",
      "outputs": [
        {
          "internalType": "uint256",
          "name": "",
          "type": "uint256"
        }
      ],
      "stateMutability": "view",
      "type": "function"
    },
    {
      "inputs": [
        {
          "internalType": "address",
          "name": "miner",
          "type": "address"
        },
        {
          "internalType": "uint256",
          "name": "nonce",
          "type": "uint256"
        }
      ],
      "name": "epochHash",
      "outputs": [
        {
          "internalType": "bytes32",
          "name": "",
          "type": "bytes32"
        }
      ],
      "stateMutability": "view",
      "type": "function"
    },
    {
      "inputs": [
        {
          "internalType": "uint256",
          "name": "",
          "type": "uint256"
        },
        {
          "internalType": "address",
          "name": "",
          "type": "address"
        }
      ],
      "name": "epochMiners",
      "outputs": [
        {
          "internalType": "uint256",
          "name": "shares",
          "type": "uint256"
        },
        {
          "internalType": "bool",
          "name": "claimed",
          "type": "bool"
        }
      ],
      "stateMutability": "view",
      "type": "function"
    },
    {
      "inputs": [
        {
          "internalType": "uint256",
          "name": "epoch",
          "type": "uint256"
        },
        {
          "internalType": "address",
          "name": "miner",
          "type": "address"
        }
      ],
      "name": "getShares",
      "outputs": [
        {
          "internalType": "uint256",
          "name": "",
          "type": "uint256"
        }
      ],
      "stateMutability": "view",
      "type": "function"
    },
    {
      "inputs": [],
      "name": "getWork",
      "outputs": [
        {
          "internalType": "uint256",
          "name": "epoch",
          "type": "uint256"
        },
        {
          "internalType": "uint256",
          "name": "difficultyOut",
          "type": "uint256"
        },
        {
          "internalType": "uint256",
          "name": "targetOut",
          "type": "uint256"
        }
      ],
      "stateMutability": "view",
      "type": "function"
    },
    {
      "inputs": [],
      "name": "owner",
      "outputs": [
        {
          "internalType": "address",
          "name": "",
          "type": "address"
        }
      ],
      "stateMutability": "view",
      "type": "function"
    },
    {
      "inputs": [
        {
          "internalType": "uint256",
          "name": "epoch",
          "type": "uint256"
        },
        {
          "internalType": "address",
          "name": "minerAddr",
          "type": "address"
        }
      ],
      "name": "pendingRewards",
      "outputs": [
        {
          "internalType": "uint256",
          "name": "",
          "type": "uint256"
        }
      ],
      "stateMutability": "view",
      "type": "function"
    },
    {
      "inputs": [],
      "name": "rewardPerShare",
      "outputs": [
        {
          "internalType": "uint256",
          "name": "",
          "type": "uint256"
        }
      ],
      "stateMutability": "view",
      "type": "function"
    },
    {
      "inputs": [
        {
          "internalType": "uint256",
          "name": "_newFeeBps",
          "type": "uint256"
        }
      ],
      "name": "setDevFee",
      "outputs": [],
      "stateMutability": "nonpayable",
      "type": "function"
    },
    {
      "inputs": [
        {
          "internalType": "address",
          "name": "_newDevWallet",
          "type": "address"
        }
      ],
      "name": "setDevWallet",
      "outputs": [],
      "stateMutability": "nonpayable",
      "type": "function"
    },
    {
      "inputs": [
        {
          "internalType": "uint256",
          "name": "_difficulty",
          "type": "uint256"
        }
      ],
      "name": "setDifficulty",
      "outputs": [],
      "stateMutability": "nonpayable",
      "type": "function"
    },
    {
      "inputs": [
        {
          "internalType": "uint256",
          "name": "_rewardPerShare",
          "type": "uint256"
        }
      ],
      "name": "startNewEpoch",
      "outputs": [],
      "stateMutability": "nonpayable",
      "type": "function"
    },
    {
      "inputs": [
        {
          "internalType": "uint256",
          "name": "nonce",
          "type": "uint256"
        }
      ],
      "name": "submitShare",
      "outputs": [],
      "stateMutability": "nonpayable",
      "type": "function"
    },
    {
      "inputs": [],
      "name": "target",
      "outputs": [
        {
          "internalType": "uint256",
          "name": "",
          "type": "uint256"
        }
      ],
      "stateMutability": "view",
      "type": "function"
    },
    {
      "inputs": [
        {
          "internalType": "uint256",
          "name": "_rewardPerShare",
          "type": "uint256"
        }
      ],
      "name": "updateParams",
      "outputs": [],
      "stateMutability": "nonpayable",
      "type": "function"
    },
    {
      "inputs": [
        {
          "internalType": "uint256",
          "name": "",
          "type": "uint256"
        },
        {
          "internalType": "address",
          "name": "",
          "type": "address"
        },
        {
          "internalType": "uint256",
          "name": "",
          "type": "uint256"
        }
      ],
      "name": "usedNonce",
      "outputs": [
        {
          "internalType": "bool",
          "name": "",
          "type": "bool"
        }
      ],
      "stateMutability": "view",
      "type": "function"
    },
    {
      "inputs": [],
      "name": "vault",
      "outputs": [
        {
          "internalType": "contract RewardsVault",
          "name": "",
          "type": "address"
        }
      ],
      "stateMutability": "view",
      "type": "function"
    }
  ],
  "bytecode": "0x60806040526101f46003553480156200001757600080fd5b5060405162001f5538038062001f5583398181016040528101906200003d919062000315565b600073ffffffffffffffffffffffffffffffffffffffff168473ffffffffffffffffffffffffffffffffffffffff1603620000af576040517f08c379a0000000000000000000000000000000000000000000000000000000008152600401620000a690620003e8565b60405180910390fd5b600073ffffffffffffffffffffffffffffffffffffffff168373ffffffffffffffffffffffffffffffffffffffff160362000121576040517f08c379a000000000000000000000000000000000000000000000000000000000815260040162000118906200045a565b60405180910390fd5b33600160006101000a81548173ffffffffffffffffffffffffffffffffffffffff021916908373ffffffffffffffffffffffffffffffffffffffff16021790555082600260006101000a81548173ffffffffffffffffffffffffffffffffffffffff021916908373ffffffffffffffffffffffffffffffffffffffff160217905550836000806101000a81548173ffffffffffffffffffffffffffffffffffffffff021916908373ffffffffffffffffffffffffffffffffffffffff16021790555081600781905550817fffffffffffffffffffffffffffffffffffffffffffffffffffffffffffffffff901c6005819055508060068190555060016004819055507f29db3deb62ef2036e5eb93aad68d2362aec0711af592cb365566603bd88651d46004546005546006546040516200025e939291906200048d565b60405180910390a150505050620004ca565b600080fd5b600073ffffffffffffffffffffffffffffffffffffffff82169050919050565b6000620002a28262000275565b9050919050565b620002b48162000295565b8114620002c057600080fd5b50565b600081519050620002d481620002a9565b92915050565b6000819050919050565b620002ef81620002da565b8114620002fb57600080fd5b50565b6000815190506200030f81620002e4565b92915050565b6000806000806080858703121562000332576200033162000270565b5b60006200034287828801620002c3565b94505060206200035587828801620002c3565b93505060406200036887828801620002fe565b92505060606200037b87828801620002fe565b91505092959194509250565b600082825260208201905092915050565b7f496e76616c6964207661756c7420616464726573730000000000000000000000600082015250565b6000620003d060158362000387565b9150620003dd8262000398565b602082019050919050565b600060208201905081810360008301526200040381620003c1565b9050919050565b7f496e76616c6964206465762077616c6c65742061646472657373000000000000600082015250565b600062000442601a8362000387565b91506200044f826200040a565b602082019050919050565b60006020820190508181036000830152620004758162000433565b9050919050565b6200048781620002da565b82525050565b6000606082019050620004a460008301866200047c565b620004b360208301856200047c565b620004c260408301846200047c565b949350505050565b611a7b80620004da6000396000f3fe608060405234801561001057600080fd5b50600436106101375760003560e01c8063602512e1116100b85780638ea5220f1161007c5780638ea5220f1461033f578063a57491871461035d578063ba2c0f2f14610379578063d18df53c14610395578063d4b83992146103c5578063fbfa77cf146103e357610137565b8063602512e11461028657806375516a41146102a257806375c0b9fe146102d357806376671808146103035780638da5cb5b1461032157610137565b80631f53ac02116100ff5780631f53ac02146101e257806331718bf5146101fe578063446a2ec81461022e5780634bbed3961461024c57806355fb1d461461026857610137565b80630962ef791461013c5780630b5442131461015857806319cae462146101885780631c26d5cb146101a65780631c75b6b2146101c6575b600080fd5b610156600480360381019061015191906111b5565b610401565b005b610172600480360381019061016d9190611240565b61068b565b60405161017f9190611299565b60405180910390f35b6101906106c2565b60405161019d91906112c3565b60405180910390f35b6101ae6106c8565b6040516101bd939291906112de565b60405180910390f35b6101e060048036038101906101db91906111b5565b6106e1565b005b6101fc60048036038101906101f79190611315565b6107fb565b005b61021860048036038101906102139190611342565b6109ba565b60405161022591906113b0565b60405180910390f35b6102366109f6565b60405161024391906112c3565b60405180910390f35b610266600480360381019061026191906111b5565b6109fc565b005b610270610b1d565b60405161027d91906112c3565b60405180910390f35b6102a0600480360381019061029b91906111b5565b610b23565b005b6102bc60048036038101906102b791906113cb565b610c72565b6040516102ca92919061140b565b60405180910390f35b6102ed60048036038101906102e891906113cb565b610cb0565b6040516102fa91906112c3565b60405180910390f35b61030b610d0e565b60405161031891906112c3565b60405180910390f35b610329610d14565b6040516103369190611443565b60405180910390f35b610347610d3a565b6040516103549190611443565b60405180910390f35b610377600480360381019061037291906111b5565b610d60565b005b610393600480360381019061038e91906111b5565b610e31565b005b6103af60048036038101906103aa91906113cb565b61109b565b6040516103bc91906112c3565b60405180910390f35b6103cd611150565b6040516103da91906112c3565b60405180910390f35b6103eb611156565b6040516103f891906114bd565b60405180910390f35b600061040d823361109b565b905060008111610452576040517f08c379a000000000000000000000000000000000000000000000000000000000815260040161044990611535565b60405180910390fd5b60016008600084815260200190815260200160002060003373ffffffffffffffffffffffffffffffffffffffff1673ffffffffffffffffffffffffffffffffffffffff16815260200190815260200160002060010160006101000a81548160ff0219169083151502179055506000612710600354836104d19190611584565b6104db91906115f5565b9050600081836104eb9190611626565b905060008211156105a65760008054906101000a900473ffffffffffffffffffffffffffffffffffffffff1673ffffffffffffffffffffffffffffffffffffffff1663fb932108600260009054906101000a900473ffffffffffffffffffffffffffffffffffffffff16846040518363ffffffff1660e01b815260040161057392919061165a565b600060405180830381600087803b15801561058d57600080fd5b505af11580156105a1573d6000803e3d6000fd5b505050505b60008054906101000a900473ffffffffffffffffffffffffffffffffffffffff1673ffffffffffffffffffffffffffffffffffffffff1663fb93210833836040518363ffffffff1660e01b815260040161060192919061165a565b600060405180830381600087803b15801561061b57600080fd5b505af115801561062f573d6000803e3d6000fd5b505050503373ffffffffffffffffffffffffffffffffffffffff167f56253d287efacdb2c4cd76dd03624a4821c1ce721d1152e8f5f5718f6087c9bf85838560405161067d939291906112de565b60405180910390a250505050565b600082600454836040516020016106a4939291906116ec565b60405160208183030381529060405280519060200120905092915050565b60075481565b6000806000600454600754600554925092509250909192565b600160009054906101000a900473ffffffffffffffffffffffffffffffffffffffff1673ffffffffffffffffffffffffffffffffffffffff163373ffffffffffffffffffffffffffffffffffffffff1614610771576040517f08c379a000000000000000000000000000000000000000000000000000000000815260040161076890611775565b60405180910390fd5b6107d08111156107b6576040517f08c379a00000000000000000000000000000000000000000000000000000000081526004016107ad906117e1565b60405180910390fd5b7f8bec4d0679074f4fa11d4ad6f3d5450586ebf098a6dffff9ecaa4223a1ac0000600354826040516107e9929190611801565b60405180910390a18060038190555050565b600160009054906101000a900473ffffffffffffffffffffffffffffffffffffffff1673ffffffffffffffffffffffffffffffffffffffff163373ffffffffffffffffffffffffffffffffffffffff161461088b576040517f08c379a000000000000000000000000000000000000000000000000000000000815260040161088290611775565b60405180910390fd5b600073ffffffffffffffffffffffffffffffffffffffff168173ffffffffffffffffffffffffffffffffffffffff16036108fa576040517f08c379a00000000000000000000000000000000000000000000000000000000081526004016108f190611876565b60405180910390fd5b8073ffffffffffffffffffffffffffffffffffffffff16600260009054906101000a900473ffffffffffffffffffffffffffffffffffffffff1673ffffffffffffffffffffffffffffffffffffffff167f0db17895a9d092fb3ca24d626f2150dd80c185b0706b36f1040ee239f56cb87160405160405180910390a380600260006101000a81548173ffffffffffffffffffffffffffffffffffffffff021916908373ffffffffffffffffffffffffffffffffffffffff16021790555050565b6009602052826000526040600020602052816000526040600020602052806000526040600020600092509250509054906101000a900460ff1681565b60065481565b600160009054906101000a900473ffffffffffffffffffffffffffffffffffffffff1673ffffffffffffffffffffffffffffffffffffffff163373ffffffffffffffffffffffffffffffffffffffff1614610a8c576040517f08c379a0000000000000000000000000000000000000000000000000000000008152600401610a8390611775565b60405180910390fd5b600160046000828254610a9f9190611896565b92505081905550806006819055506007547fffffffffffffffffffffffffffffffffffffffffffffffffffffffffffffffff901c6005819055507f29db3deb62ef2036e5eb93aad68d2362aec0711af592cb365566603bd88651d4600454600554600654604051610b12939291906112de565b60405180910390a150565b60035481565b600160009054906101000a900473ffffffffffffffffffffffffffffffffffffffff1673ffffffffffffffffffffffffffffffffffffffff163373ffffffffffffffffffffffffffffffffffffffff1614610bb3576040517f08c379a0000000000000000000000000000000000000000000000000000000008152600401610baa90611775565b60405180910390fd5b600081118015610bc4575061010081105b610c03576040517f08c379a0000000000000000000000000000000000000000000000000000000008152600401610bfa90611916565b60405180910390fd5b80600781905550807fffffffffffffffffffffffffffffffffffffffffffffffffffffffffffffffff901c6005819055507fd19da763a0df17b46531159d88c7e4968a4b2d3c50749d4d9e283e3bf75d5b5781600554604051610c67929190611801565b60405180910390a150565b6008602052816000526040600020602052806000526040600020600091509150508060000154908060010160009054906101000a900460ff16905082565b60006008600084815260200190815260200160002060008373ffffffffffffffffffffffffffffffffffffffff1673ffffffffffffffffffffffffffffffffffffffff16815260200190815260200160002060000154905092915050565b60045481565b600160009054906101000a900473ffffffffffffffffffffffffffffffffffffffff1681565b600260009054906101000a900473ffffffffffffffffffffffffffffffffffffffff1681565b600160009054906101000a900473ffffffffffffffffffffffffffffffffffffffff1673ffffffffffffffffffffffffffffffffffffffff163373ffffffffffffffffffffffffffffffffffffffff1614610df0576040517f08c379a0000000000000000000000000000000000000000000000000000000008152600401610de790611775565b60405180910390fd5b806006819055507fa96b260c11da5ffa5f74f6cd6dcb582ef40c552985b8622dd901e63ecee02b3b81604051610e2691906112c3565b60405180910390a150565b60096000600454815260200190815260200160002060003373ffffffffffffffffffffffffffffffffffffffff1673ffffffffffffffffffffffffffffffffffffffff168152602001908152602001600020600082815260200190815260200160002060009054906101000a900460ff1615610ee2576040517f08c379a0000000000000000000000000000000000000000000000000000000008152600401610ed990611982565b60405180910390fd5b60003360045483604051602001610efb939291906116ec565b6040516020818303038152906040528051906020012090506005548160001c10610f5a576040517f08c379a0000000000000000000000000000000000000000000000000000000008152600401610f51906119ee565b60405180910390fd5b600160096000600454815260200190815260200160002060003373ffffffffffffffffffffffffffffffffffffffff1673ffffffffffffffffffffffffffffffffffffffff168152602001908152602001600020600084815260200190815260200160002060006101000a81548160ff021916908315150217905550600160086000600454815260200190815260200160002060003373ffffffffffffffffffffffffffffffffffffffff1673ffffffffffffffffffffffffffffffffffffffff168152602001908152602001600020600001600082825461103c9190611896565b925050819055503373ffffffffffffffffffffffffffffffffffffffff167f83e1947c23289aa07cd7e18e54ea0985ff65890e7388eebb89821094fed6de31600454848460405161108f93929190611a0e565b60405180910390a25050565b6000806008600085815260200190815260200160002060008473ffffffffffffffffffffffffffffffffffffffff1673ffffffffffffffffffffffffffffffffffffffff168152602001908152602001600020604051806040016040529081600082015481526020016001820160009054906101000a900460ff161515151581525050905080602001511561113457600091505061114a565b60065481600001516111469190611584565b9150505b92915050565b60055481565b60008054906101000a900473ffffffffffffffffffffffffffffffffffffffff1681565b600080fd5b6000819050919050565b6111928161117f565b811461119d57600080fd5b50565b6000813590506111af81611189565b92915050565b6000602082840312156111cb576111ca61117a565b5b60006111d9848285016111a0565b91505092915050565b600073ffffffffffffffffffffffffffffffffffffffff82169050919050565b600061120d826111e2565b9050919050565b61121d81611202565b811461122857600080fd5b50565b60008135905061123a81611214565b92915050565b600080604083850312156112575761125661117a565b5b60006112658582860161122b565b9250506020611276858286016111a0565b9150509250929050565b6000819050919050565b61129381611280565b82525050565b60006020820190506112ae600083018461128a565b92915050565b6112bd8161117f565b82525050565b60006020820190506112d860008301846112b4565b92915050565b60006060820190506112f360008301866112b4565b61130060208301856112b4565b61130d60408301846112b4565b949350505050565b60006020828403121561132b5761132a61117a565b5b60006113398482850161122b565b91505092915050565b60008060006060848603121561135b5761135a61117a565b5b6000611369868287016111a0565b935050602061137a8682870161122b565b925050604061138b868287016111a0565b9150509250925092565b60008115159050919050565b6113aa81611395565b82525050565b60006020820190506113c560008301846113a1565b92915050565b600080604083850312156113e2576113e161117a565b5b60006113f0858286016111a0565b92505060206114018582860161122b565b9150509250929050565b600060408201905061142060008301856112b4565b61142d60208301846113a1565b9392505050565b61143d81611202565b82525050565b60006020820190506114586000830184611434565b92915050565b6000819050919050565b600061148361147e611479846111e2565b61145e565b6111e2565b9050919050565b600061149582611468565b9050919050565b60006114a78261148a565b9050919050565b6114b78161149c565b82525050565b60006020820190506114d260008301846114ae565b92915050565b600082825260208201905092915050565b7f4e6f2072657761726473206f7220616c726561647920636c61696d6564000000600082015250565b600061151f601d836114d8565b915061152a826114e9565b602082019050919050565b6000602082019050818103600083015261154e81611512565b9050919050565b7f4e487b7100000000000000000000000000000000000000000000000000000000600052601160045260246000fd5b600061158f8261117f565b915061159a8361117f565b92508282026115a88161117f565b915082820484148315176115bf576115be611555565b5b5092915050565b7f4e487b7100000000000000000000000000000000000000000000000000000000600052601260045260246000fd5b60006116008261117f565b915061160b8361117f565b92508261161b5761161a6115c6565b5b828204905092915050565b60006116318261117f565b915061163c8361117f565b925082820390508181111561165457611653611555565b5b92915050565b600060408201905061166f6000830185611434565b61167c60208301846112b4565b9392505050565b60008160601b9050919050565b600061169b82611683565b9050919050565b60006116ad82611690565b9050919050565b6116c56116c082611202565b6116a2565b82525050565b6000819050919050565b6116e66116e18261117f565b6116cb565b82525050565b60006116f882866116b4565b60148201915061170882856116d5565b60208201915061171882846116d5565b602082019150819050949350505050565b7f4e6f74206f776e65720000000000000000000000000000000000000000000000600082015250565b600061175f6009836114d8565b915061176a82611729565b602082019050919050565b6000602082019050818103600083015261178e81611752565b9050919050565b7f4665652063616e6e6f7420657863656564203230250000000000000000000000600082015250565b60006117cb6015836114d8565b91506117d682611795565b602082019050919050565b600060208201905081810360008301526117fa816117be565b9050919050565b600060408201905061181660008301856112b4565b61182360208301846112b4565b9392505050565b7f496e76616c696420616464726573730000000000000000000000000000000000600082015250565b6000611860600f836114d8565b915061186b8261182a565b602082019050919050565b6000602082019050818103600083015261188f81611853565b9050919050565b60006118a18261117f565b91506118ac8361117f565b92508282019050808211156118c4576118c3611555565b5b92915050565b7f496e76616c696420646966666963756c74790000000000000000000000000000600082015250565b60006119006012836114d8565b915061190b826118ca565b602082019050919050565b6000602082019050818103600083015261192f816118f3565b9050919050565b7f4e6f6e6365207573656400000000000000000000000000000000000000000000600082015250565b600061196c600a836114d8565b915061197782611936565b602082019050919050565b6000602082019050818103600083015261199b8161195f565b9050919050565b7f446966666963756c7479206e6f74206d65740000000000000000000000000000600082015250565b60006119d86012836114d8565b91506119e3826119a2565b602082019050919050565b60006020820190508181036000830152611a07816119cb565b9050919050565b6000606082019050611a2360008301866112b4565b611a3060208301856112b4565b611a3d604083018461128a565b94935050505056fea2646970667358221220c74ca51d1a80868cf7ddd5ad23a19a39d0658569009cf263b222c2c1783260b564736f6c63430008180033",
  "linkReferences": {},
  "deployedLinkReferences": {}
}